:100000000C942A000C94A8010C94A8010C94A8014B
:100010000C94A8010C94A8010C94A8010C94A801BC
:100020000C94A8010C94A8010C94A8010C94A801AC
:100030000C94A8010C94A8010C94A8010C94A8019C
:100040000C94A8010C94A8010C94A8010C94A8018C
:100050000C94A80111241FBECFE5D8E0DEBFCDBFB0
:10006000E4E5F0E040E017C0B591A5913591259108
:10007000059107FD0CC095918591EF01F92FE82FAF
:1000800005900D92A217B307D9F7FE0104C01D9287
:10009000A217B307E1F7E435F40731F70E945A01DC
:0800A0000C949D01F894FFCFC0
:1000A800683008F078C04130C1F5813091F028F00F
:1000B8008230D9F0833029F170C02AB381E090E012
:1000C80002C0880F991F6A95E2F7822B8ABB81E0EC
:1000D800089527B381E090E002C0880F991F6A95C0
:1000E800E2F7822B87BB81E0089524B381E090E09A
:1000F80002C0880F991F6A95E2F7822B84BB81E0C2
:10010800089521B381E090E002C0880F991F6A9595
:10011800E2F7822B81BB81E00895411140C0813014
:1001280099F028F08230E9F0833041F13AC02AB3DF
:1001380081E090E002C0880F991F6A95E2F78095E8
:1001480082238ABB81E0089527B381E090E002C052
:10015800880F991F6A95E2F78095822387BB81E013
:10016800089524B381E090E002C0880F991F6A9532
:10017800E2F78095822384BB81E0089521B381E072
:1001880090E002C0880F991F6A95E2F78095822354
:1001980081BB81E0089580E0089581E0089581E0C1
:0601A800089581E00895B6
:1001AE00683008F078C04130C1F5813091F028F008
:1001BE008230D9F0833029F170C02BB381E090E00A
:1001CE0002C0880F991F6A95E2F7822B8BBB81E0E4
:1001DE00089528B381E090E002C0880F991F6A95B8
:1001EE00E2F7822B88BB81E0089525B381E090E091
:1001FE0002C0880F991F6A95E2F7822B85BB81E0BA
:10020E00089522B381E090E002C0880F991F6A958D
:10021E00E2F7822B82BB81E00895411140C081300C
:10022E0099F028F08230E9F0833041F13AC02BB3D7
:10023E0081E090E002C0880F991F6A95E2F78095E1
:10024E0082238BBB81E0089528B381E090E002C049
:10025E00880F991F6A95E2F78095822388BB81E00B
:10026E00089525B381E090E002C0880F991F6A952A
:10027E00E2F78095822385BB81E0089522B381E069
:10028E0090E002C0880F991F6A95E2F7809582234D
:10029E0082BB81E0089580E0089581E0089581E0B9
:0602AE00089581E00895AF
:1002B40041E050E061E070E080E090E00E94540092
:1002C40041E050E061E070E080E090E00E94D700FF
:1002D40060E085E00E94850160E083E00E94910176
:0E02E40060E070E082E090E00E947901FFCFC0
:1002F20070E041E050E090E00E945400892B11F040
:0803020081E0089580E00895F8
:10030A0070E041E050E090E00E945400892B11F027
:08031A0081E0089580E00895E0
:1003220070E041E050E090E00E945400892B11F00F
:0803320081E0089580E00895C8
:10033A00EC010E94AD010E94AC01CE010E94AE0107
:06034A00CE010E94AA0191
:040350000C94000009
:040354000E945200B1
:02035800089506
:02035A00089504
:02035C00089502
:00000001FF
